{
  "_format": "hh-sol-artifact-1",
  "contractName": "SimpleToken",
  "sourceName": "contracts/SimpleToken.sol",
  "abi": [
    {
      "inputs": [],
      "stateMutability": "nonpayable",
      "type": "constructor"
    },
    {
      "anonymous": false,
      "inputs": [
        {
          "indexed": false,
          "internalType": "address",
          "name": "from",
          "type": "address"
        },
        {
          "indexed": false,
          "internalType": "address",
          "name": "to",
          "type": "address"
        },
        {
          "indexed": false,
          "internalType": "uint256",
          "name": "amount",
          "type": "uint256"
        }
      ],
      "name": "Sent",
      "type": "event"
    },
    {
      "anonymous": false,
      "inputs": [
        {
          "indexed": false,
          "internalType": "address",
          "name": "from",
          "type": "address"
        },
        {
          "indexed": false,
          "internalType": "uint256",
          "name": "amount",
          "type": "uint256"
        }
      ],
      "name": "Topup",
      "type": "event"
    },
    {
      "anonymous": false,
      "inputs": [
        {
          "indexed": false,
          "internalType": "address",
          "name": "to",
          "type": "address"
        },
        {
          "indexed": false,
          "internalType": "uint256",
          "name": "amount",
          "type": "uint256"
        }
      ],
      "name": "Withdrew",
      "type": "event"
    },
    {
      "inputs": [],
      "name": "getBalance",
      "outputs": [
        {
          "internalType": "uint256",
          "name": "",
          "type": "uint256"
        }
      ],
      "stateMutability": "view",
      "type": "function"
    },
    {
      "inputs": [],
      "name": "owner",
      "outputs": [
        {
          "internalType": "address",
          "name": "",
          "type": "address"
        }
      ],
      "stateMutability": "view",
      "type": "function"
    },
    {
      "inputs": [
        {
          "internalType": "address",
          "name": "receiver",
          "type": "address"
        },
        {
          "internalType": "uint256",
          "name": "amount",
          "type": "uint256"
        }
      ],
      "name": "send",
      "outputs": [],
      "stateMutability": "nonpayable",
      "type": "function"
    },
    {
      "inputs": [],
      "name": "supply",
      "outputs": [
        {
          "internalType": "uint256",
          "name": "",
          "type": "uint256"
        }
      ],
      "stateMutability": "view",
      "type": "function"
    },
    {
      "inputs": [],
      "name": "topup",
      "outputs": [],
      "stateMutability": "payable",
      "type": "function"
    },
    {
      "inputs": [
        {
          "internalType": "uint256",
          "name": "amount",
          "type": "uint256"
        }
      ],
      "name": "withdraw",
      "outputs": [],
      "stateMutability": "nonpayable",
      "type": "function"
    }
  ],
  "bytecode": "0x608060405234801561001057600080fd5b5033600160006101000a81548173ffffffffffffffffffffffffffffffffffffffff021916908373ffffffffffffffffffffffffffffffffffffffff1602179055503373ffffffffffffffffffffffffffffffffffffffff16316000819055506108208061007f6000396000f3fe6080604052600436106100555760003560e01c8063047fc9aa1461005a57806312065fe0146100855780632e1a7d4d146100b057806369774c2d146100d95780638da5cb5b146100e3578063d0679d341461010e575b600080fd5b34801561006657600080fd5b5061006f610137565b60405161007c9190610672565b60405180910390f35b34801561009157600080fd5b5061009a61013d565b6040516100a79190610672565b60405180910390f35b3480156100bc57600080fd5b506100d760048036038101906100d2919061056d565b610184565b005b6100e16102e1565b005b3480156100ef57600080fd5b506100f8610372565b60405161010591906105d7565b60405180910390f35b34801561011a57600080fd5b5061013560048036038101906101309190610531565b610398565b005b60005481565b6000600260003373ffffffffffffffffffffffffffffffffffffffff1673ffffffffffffffffffffffffffffffffffffffff16815260200190815260200160002054905090565b8080600260003373ffffffffffffffffffffffffffffffffffffffff1673ffffffffffffffffffffffffffffffffffffffff168152602001908152602001600020541015610207576040517f08c379a00000000000000000000000000000000000000000000000000000000081526004016101fe90610652565b60405180910390fd5b81600260003373ffffffffffffffffffffffffffffffffffffffff1673ffffffffffffffffffffffffffffffffffffffff168152602001908152602001600020600082825461025691906106f4565b925050819055503373ffffffffffffffffffffffffffffffffffffffff166108fc839081150290604051600060405180830381858888f193505050501580156102a3573d6000803e3d6000fd5b507fb244b9a17ad633c6e83b7983ee04320484956a68ddbe96a0b70dfca1cf19d72333836040516102d5929190610629565b60405180910390a15050565b34600260003373ffffffffffffffffffffffffffffffffffffffff1673ffffffffffffffffffffffffffffffffffffffff1681526020019081526020016000206000828254610330919061069e565b925050819055507fe42154258c884b86569a2717aa2a913a61e0c7e67ae153dc3c354b3e2d1a821a3334604051610368929190610629565b60405180910390a1565b600160009054906101000a900473ffffffffffffffffffffffffffffffffffffffff1681565b8080600260003373ffffffffffffffffffffffffffffffffffffffff1673ffffffffffffffffffffffffffffffffffffffff16815260200190815260200160002054101561041b576040517f08c379a000000000000000000000000000000000000000000000000000000000815260040161041290610652565b60405180910390fd5b81600260003373ffffffffffffffffffffffffffffffffffffffff1673ffffffffffffffffffffffffffffffffffffffff168152602001908152602001600020600082825461046a91906106f4565b9250508190555081600260008573ffffffffffffffffffffffffffffffffffffffff1673ffffffffffffffffffffffffffffffffffffffff16815260200190815260200160002060008282546104c0919061069e565b925050819055507f3990db2d31862302a685e8086b5755072a6e2b5b780af1ee81ece35ee3cd33453384846040516104fa939291906105f2565b60405180910390a1505050565b600081359050610516816107bc565b92915050565b60008135905061052b816107d3565b92915050565b6000806040838503121561054457600080fd5b600061055285828601610507565b92505060206105638582860161051c565b9150509250929050565b60006020828403121561057f57600080fd5b600061058d8482850161051c565b91505092915050565b61059f81610728565b82525050565b60006105b260148361068d565b91506105bd82610793565b602082019050919050565b6105d18161075a565b82525050565b60006020820190506105ec6000830184610596565b92915050565b60006060820190506106076000830186610596565b6106146020830185610596565b61062160408301846105c8565b949350505050565b600060408201905061063e6000830185610596565b61064b60208301846105c8565b9392505050565b6000602082019050818103600083015261066b816105a5565b9050919050565b600060208201905061068760008301846105c8565b92915050565b600082825260208201905092915050565b60006106a98261075a565b91506106b48361075a565b9250827fffffffffffffffffffffffffffffffffffffffffffffffffffffffffffffffff038211156106e9576106e8610764565b5b828201905092915050565b60006106ff8261075a565b915061070a8361075a565b92508282101561071d5761071c610764565b5b828203905092915050565b60006107338261073a565b9050919050565b600073ffffffffffffffffffffffffffffffffffffffff82169050919050565b6000819050919050565b7f4e487b7100000000000000000000000000000000000000000000000000000000600052601160045260246000fd5b7f496e73756666696369656e742062616c616e6365000000000000000000000000600082015250565b6107c581610728565b81146107d057600080fd5b50565b6107dc8161075a565b81146107e757600080fd5b5056fea26469706673582212204cce348b368e530ab1b58206b3884c5564ec878edb281b411f3714c28091018964736f6c63430008040033",
  "linkReferences": {},
  "deployedLinkReferences": {}
}